{
  "_format": "hh-sol-artifact-1",
  "contractName": "Challenge",
  "sourceName": "contracts/Challenge.sol",
  "abi": [
    {
      "inputs": [],
      "stateMutability": "nonpayable",
      "type": "constructor"
    },
    {
      "inputs": [],
      "name": "ChallengeTimeExpired",
      "type": "error"
    },
    {
      "anonymous": false,
      "inputs": [
        {
          "indexed": true,
          "internalType": "uint256",
          "name": "challengeIndex",
          "type": "uint256"
        },
        {
          "indexed": false,
          "internalType": "string",
          "name": "challengeName",
          "type": "string"
        }
      ],
      "name": "ChallengeExpired",
      "type": "event"
    },
    {
      "inputs": [],
      "name": "addAPost",
      "outputs": [],
      "stateMutability": "nonpayable",
      "type": "function"
    },
    {
      "inputs": [
        {
          "internalType": "string",
          "name": "chaName",
          "type": "string"
        },
        {
          "internalType": "uint256",
          "name": "chaPostRequired",
          "type": "uint256"
        },
        {
          "internalType": "uint256",
          "name": "chaDuration",
          "type": "uint256"
        }
      ],
      "name": "addChallenge",
      "outputs": [],
      "stateMutability": "nonpayable",
      "type": "function"
    },
    {
      "inputs": [
        {
          "internalType": "uint256",
          "name": "challengeIndex",
          "type": "uint256"
        },
        {
          "internalType": "string",
          "name": "participantName",
          "type": "string"
        }
      ],
      "name": "joinAChallenge",
      "outputs": [],
      "stateMutability": "nonpayable",
      "type": "function"
    },
    {
      "inputs": [
        {
          "internalType": "uint256",
          "name": "challengeIndex",
          "type": "uint256"
        },
        {
          "internalType": "uint256",
          "name": "endTime",
          "type": "uint256"
        }
      ],
      "name": "setChallengeEndTime",
      "outputs": [],
      "stateMutability": "nonpayable",
      "type": "function"
    }
  ],
  "bytecode": "0x608060405234801561001057600080fd5b50336000806101000a81548173ffffffffffffffffffffffffffffffffffffffff021916908373ffffffffffffffffffffffffffffffffffffffff160217905550610bf1806100606000396000f3fe608060405234801561001057600080fd5b506004361061004c5760003560e01c80632676343a146100515780632fa8d0e41461006d57806394b07bd514610089578063d7661143146100a5575b600080fd5b61006b600480360381019061006691906106da565b6100af565b005b61008760048036038101906100829190610860565b6101b2565b005b6100a3600480360381019061009e91906108bc565b6103db565b005b6100ad610502565b005b60008054906101000a900473ffffffffffffffffffffffffffffffffffffffff1673ffffffffffffffffffffffffffffffffffffffff163373ffffffffffffffffffffffffffffffffffffffff161461013d576040517f08c379a0000000000000000000000000000000000000000000000000000000008152600401610134906109ae565b60405180910390fd5b6001805490508210610184576040517f08c379a000000000000000000000000000000000000000000000000000000000815260040161017b90610a1a565b60405180910390fd5b806001838154811061019957610198610a3a565b5b9060005260206000209060040201600301819055505050565b60018054905082106101f9576040517f08c379a00000000000000000000000000000000000000000000000000000000081526004016101f090610a1a565b60405180910390fd5b60008054906101000a900473ffffffffffffffffffffffffffffffffffffffff1673ffffffffffffffffffffffffffffffffffffffff163373ffffffffffffffffffffffffffffffffffffffff161415610288576040517f08c379a000000000000000000000000000000000000000000000000000000000815260040161027f90610ab5565b60405180910390fd5b600033905081600260008373ffffffffffffffffffffffffffffffffffffffff1673ffffffffffffffffffffffffffffffffffffffff16815260200190815260200160002060000190805190602001906102e39291906105ed565b5082600260008373ffffffffffffffffffffffffffffffffffffffff1673ffffffffffffffffffffffffffffffffffffffff168152602001908152602001600020600101819055506000600260008373ffffffffffffffffffffffffffffffffffffffff1673ffffffffffffffffffffffffffffffffffffffff168152602001908152602001600020600201819055506003819080600181540180825580915050600190039060005260206000200160009091909190916101000a81548173ffffffffffffffffffffffffffffffffffffffff021916908373ffffffffffffffffffffffffffffffffffffffff160217905550505050565b60008054906101000a900473ffffffffffffffffffffffffffffffffffffffff1673ffffffffffffffffffffffffffffffffffffffff163373ffffffffffffffffffffffffffffffffffffffff1614610469576040517f08c379a0000000000000000000000000000000000000000000000000000000008152600401610460906109ae565b60405180910390fd5b6001604051806080016040528085815260200184815260200183815260200183426104949190610b04565b815250908060018154018082558091505060019003906000526020600020906004020160009091909190915060008201518160000190805190602001906104dc9291906105ed565b506020820151816001015560408201518160020155606082015181600301555050505050565b6000339050600180549050600260008373ffffffffffffffffffffffffffffffffffffffff1673ffffffffffffffffffffffffffffffffffffffff1681526020019081526020016000206001015410610590576040517f08c379a000000000000000000000000000000000000000000000000000000000815260040161058790610a1a565b60405180910390fd5b6001600260008373ffffffffffffffffffffffffffffffffffffffff1673ffffffffffffffffffffffffffffffffffffffff16815260200190815260200160002060020160008282546105e39190610b04565b9250508190555050565b8280546105f990610b89565b90600052602060002090601f01602090048101928261061b5760008555610662565b82601f1061063457805160ff1916838001178555610662565b82800160010185558215610662579182015b82811115610661578251825591602001919060010190610646565b5b50905061066f9190610673565b5090565b5b8082111561068c576000816000905550600101610674565b5090565b6000604051905090565b600080fd5b600080fd5b6000819050919050565b6106b7816106a4565b81146106c257600080fd5b50565b6000813590506106d4816106ae565b92915050565b600080604083850312156106f1576106f061069a565b5b60006106ff858286016106c5565b9250506020610710858286016106c5565b9150509250929050565b600080fd5b600080fd5b6000601f19601f8301169050919050565b7f4e487b7100000000000000000000000000000000000000000000000000000000600052604160045260246000fd5b61076d82610724565b810181811067ffffffffffffffff8211171561078c5761078b610735565b5b80604052505050565b600061079f610690565b90506107ab8282610764565b919050565b600067ffffffffffffffff8211156107cb576107ca610735565b5b6107d482610724565b9050602081019050919050565b82818337600083830152505050565b60006108036107fe846107b0565b610795565b90508281526020810184848401111561081f5761081e61071f565b5b61082a8482856107e1565b509392505050565b600082601f8301126108475761084661071a565b5b81356108578482602086016107f0565b91505092915050565b600080604083850312156108775761087661069a565b5b6000610885858286016106c5565b925050602083013567ffffffffffffffff8111156108a6576108a561069f565b5b6108b285828601610832565b9150509250929050565b6000806000606084860312156108d5576108d461069a565b5b600084013567ffffffffffffffff8111156108f3576108f261069f565b5b6108ff86828701610832565b9350506020610910868287016106c5565b9250506040610921868287016106c5565b9150509250925092565b600082825260208201905092915050565b7f4f6e6c79207468652061646d696e2063616e2063616c6c20746869732066756e60008201527f6374696f6e000000000000000000000000000000000000000000000000000000602082015250565b600061099860258361092b565b91506109a38261093c565b604082019050919050565b600060208201905081810360008301526109c78161098b565b9050919050565b7f496e76616c6964206368616c6c656e676520696e646578000000000000000000600082015250565b6000610a0460178361092b565b9150610a0f826109ce565b602082019050919050565b60006020820190508181036000830152610a33816109f7565b9050919050565b7f4e487b7100000000000000000000000000000000000000000000000000000000600052603260045260246000fd5b7f41646d696e2063616e6e6f74206a6f696e206368616c6c656e67657300000000600082015250565b6000610a9f601c8361092b565b9150610aaa82610a69565b602082019050919050565b60006020820190508181036000830152610ace81610a92565b9050919050565b7f4e487b7100000000000000000000000000000000000000000000000000000000600052601160045260246000fd5b6000610b0f826106a4565b9150610b1a836106a4565b9250827fffffffffffffffffffffffffffffffffffffffffffffffffffffffffffffffff03821115610b4f57610b4e610ad5565b5b828201905092915050565b7f4e487b7100000000000000000000000000000000000000000000000000000000600052602260045260246000fd5b60006002820490506001821680610ba157607f821691505b60208210811415610bb557610bb4610b5a565b5b5091905056fea26469706673582212204132f6be255abe62d0dad4f8c50ded2844f97dcf56179c2aa1a826cb3a38a13064736f6c63430008090033",
  "linkReferences": {},
  "deployedLinkReferences": {}
}